:020000040800F2
:10000000E004002001010008EF110008271100089A
:10001000ED110008A10100083115000800000000E2
:10002000000000000000000000000000F3110008C4
:10003000A301000800000000F1110008F5110008FC
:100040001B0100081B0100081B0100081B01000820
:100050001B0100081B0100081B0100081B01000810
:100060001B0100081B0100081B0100081B01000800
:100070001B0100081B0100081B0100081B010008F0
:100080001B0100081B0100081B0100081B010008E0
:100090001B0100081B0100081B0100081B010008D0
:1000A0001B0100081B0100081B0100081B010008C0
:1000B0001B0100081B0100081B0100081B010008B0
:1000C0001B0100081B0100081B0100081B010008A0
:1000D0001B0100081B0100081B0100081B01000890
:1000E0001B0100081B0100081B010008DFF80CD0F1
:1000F00000F044F80048004771150008E0040020B3
:100100000648804706480047FEE7FEE7FEE7FEE7B1
:10011000FEE7FEE7FEE7FEE7FEE7FEE74712000820
:10012000ED00000840EA01039B0703D009E008C97D
:10013000121F08C0042AFAD203E011F8013B00F8AC
:10014000013B521EF9D27047D2B201E000F8012BF8
:10015000491EFBD270470022F6E710B513460A4647
:1001600004461946FFF7F0FF204610BD421C10F868
:10017000011B0029FBD1801A70470000064C074D77
:1001800006E0E06840F0010394E807009847103467
:10019000AC42F6D3FFF7AEFFD0160008F016000809
:1001A000FEE7704790F82020012A07D0022A05D0E8
:1001B000416A41F480214162012070470068426930
:1001C0000A4342610020704710B590F82030026861
:1001D000012B07D0022B05D0416A41F480214162F6
:1001E000012010BDD2F8000240F00100C2F8000268
:1001F000087D00F01F0301209840D2F81C32834391
:10020000C2F81C32CB69B3B9D2F80C328343C2F8BE
:100210000C328C894B6864F31F434C6902EBC404B5
:10022000C4F840320C890B6864F31F434C6902EB3D
:10023000C404C4F84432CB69012B16D1D2F80C3275
:100240000343C2F80C320C884B6864F31F434C69BB
:1002500002EBC404C4F840320C89CB6864F31F433A
:100260004C6902EBC404C4F844328B69002BD2F809
:1002700004320FD053EA0003C2F804320B69002B9A
:10028000D2F8143208D00343C2F81432096A0129A3
:1002900004D008E08343EFE78343F5E7D2F81C126C
:1002A0000143C2F81C12D2F8000220F00100C2F88B
:1002B0000002002010BD70B5040003D094F82000A7
:1002C00010B104E0012070BD204600F081F82068E4
:1002D000016841F00101016000F0CCF905460526F6
:1002E00004E000F0C7F9401B0A2811D820684068D4
:1002F000C007F6D02068016821F00201016000F01B
:10030000B9F905460BE000F0B5F9401B0A2806D9FB
:10031000606A40F40030606284F82060D2E72068B0
:1003200040688007EFD4207E0128206801683DD016
:1003300021F080010160607E01282068016838D0CA
:1003400021F040010160A07E01282068016833D0BF
:1003500021F020010160E07E0128206801682ED094
:1003600041F010010160207F01282068016829D038
:1003700021F008010160607F01282068016824D015
:1003800021F004010160D4E902010843D4E9041218
:10039000114308436168491E08432168C861002071
:1003A0006062012084F82000002070BD41F08001CF
:1003B000C0E741F04001C5E741F02001CAE721F064
:1003C0001001CFE741F00801D4E741F00401D9E77B
:1003D00010B586B00021009101910291039100684F
:1003E0001349884222D11348C16941F00071C161AB
:1003F000C16901F000710491816941F004018161DA
:1004000080690D4C00F0040004904FF400600090EF
:100410006946204600F03EF8A014009002200190AA
:10042000032003906946204600F034F806B010BD62
:1004300000640040001002400008014070B504460E
:1004400090F82000012804D0606A40F40020606227
:1004500018E0022084F820002068016821F00101E2
:10046000016000F007F905460EE000BF00F002F958
:10047000401B0A2808D9606A40F4003060620520F9
:1004800084F82000012070BD20684068C007EDD1CD
:10049000606270BD2DE9F84FDFF8B891002409F1D2
:1004A000040A0AF1040B23460F270BF1040EC9E0DE
:1004B0000125A5402A40AA427DD1674ED1F804C04B
:1004C000ACEB0608B44532D014DCBCF1030F3AD0D3
:1004D00009DCBCF1000F2AD0BCF1010F1CD0BCF12B
:1004E000020F31D11DE0BCF1110F17D0BCF1120F7A
:1004F0002AD119E0B8F5881F19D006DCB8F5803F7D
:1005000015D0B8F5801F1FD111E0B8F5001F0ED02F
:10051000B8F5041F18D10AE0CB6815E0CB681B1DA5
:1005200012E0CB6808330FE0CB680C330CE08B682B
:100530002BB1012B4FF0080303D0456104E00423E5
:1005400002E0056100E00023FF2A01D8064601E031
:1005500000F104064FEA840501D9A5F12005D6F87B
:10056000008007FA05FC28EA0C0803FA05F548EABA
:100570000508C6F800804D68ED0062D5374DAE69BC
:1005800046F00106AE61AD6924F0030605F00105F1
:100590000095334D06EB050CDCF80850A607360F26
:1005A00007FA06F825EA0805DFF8B880404503D1C8
:1005B0004FF0000817E044E0DFF8AC80404502D17E
:1005C0004FF001080FE0DFF8A480404502D14FF062
:1005D000020808E0DFF89880404502D14FF0030898
:1005E00001E04FF0040808FA06F848EA0508CCF8DC
:1005F00008804D68D9F80060ED034D4601D51643DB
:1006000000E096432E604D68DAF80060AD03554671
:1006100001D5164300E096432E604D68DBF800607C
:10062000ED025D4601D5164300E096432E604D680D
:10063000DEF80060AD02754601D5164300E0964332
:100640002E60641C0D682A46E5407FF431AFBDE89A
:10065000F88F00000004014000001110001002405B
:100660000000014000080140000C01400010014062
:10067000001401400148806870470000000000201D
:1006800002488168027811448160704700000020B0
:10069000074810B5016841F010010160032000F027
:1006A00067F8002000F006F800F024F8002010BDE4
:1006B0000020024070B50D4D04464FF47A71287841
:1006C000B1FBF0F00A490968B1FBF0F000F0DEFA86
:1006D00048B9102C07D200222146501E00F028F8FD
:1006E00000206C6070BD012070BD00000000002083
:1006F0000C0000200C4808B5816941F001018161BE
:10070000816901F001010091C16941F08051C1612D
:10071000C06900F0805000900448416821F0E06119
:1007200041F00071416008BD00100240000001402E
:10073000F0B40E4B1B680C46C3F30223C3F107054C
:10074000042D00D90425191D072901D2002300E03A
:10075000DB1E012606FA05F1491E214099409E4004
:10076000761E16403143F0BC00F0E3BE0CED00E015
:10077000064900F0070208684FF6FF03184040EAF8
:100780000220034A10430860704700000CED00E0AF
:100790000000FA052DE9F0470F46050061D0434EF1
:1007A000306800F00700B84209D2306820F0070036
:1007B00038433060306800F00700B84251D12868F3
:1007C0003B4C810712D5400703D5606840F4E060D8
:1007D00060602878000703D5606840F4605060606E
:1007E0006068A96820F0F000084360602878C007BE
:1007F00028D06868012810D02168022810D0890705
:1008000000292EDA616821F0030101436160FFF7DE
:1008100031FF804641F288390DE021688903EFE716
:100820008901EDE7FFF726FFA0EB0801494502D952
:100830000320BDE8F0876068696800F00C00B0EB49
:10084000810FEFD1306800F00700B8420BD9306853
:1008500020F0070038433060306800F00700B842ED
:1008600001D00120E5E72878400705D56068E968F0
:1008700020F4E060084360602878000706D56068CF
:10088000296920F4605040EAC100606000F038F847
:100890006168084AC1F30311515CC8400649086009
:1008A00006480068FFF706FF0020C2E7002002406C
:1008B00000100240B81600080C00002004000020C0
:1008C0000448054900684968044AC1F30221515CA3
:1008D000C84070470C00002000100240C8160008F5
:1008E0000448054900684968044AC1F3C221515CC3
:1008F000C84070470C00002000100240C8160008D5
:1009000012A185B00FC98DE80F0014A0144A006829
:1009100004905168134801F00C03042B10D0082BED
:100920000ED1C1F38343C9031DF803000AD55168F2
:1009300004AAC1F34041515C0A4A5043B0FBF1F0B4
:1009400005B0704708494843FAE700000203040570
:10095000060708090A0B0C0D0E0F1010010200000B
:100960000010024000127A0000093D002DE9F84F06
:10097000040070D02078C04DC00749D06868C0F32B
:100980008100012807D06868C0F38100022809D1DE
:100990006868C00306D52868800339D560680028D8
:1009A000E7D035E06068B0F5803F0BD010B1B0F50E
:1009B000A02F11D0286820F480302860286820F407
:1009C000802002E0286840F480302860606890B1A0
:1009D000FFF750FE06460AE0286840F480202860B1
:1009E000F0E700BFFFF746FE801B642873D8286835
:1009F0008003F7D50CE0FFF73DFE064605E000BF9B
:100A0000FFF738FE801B6428F0D828688003F7D4ED
:100A100020789A4E80074FF001094FF0000839D531
:100A2000686810F00C0F07D06868C0F381000228D6
:100A300009D16868C00306D42868800714D52069E6
:100A4000012808D110E02069B0B1C6F80090FFF786
:100A500011FE074605E00AE1FFF70CFEC01B022865
:100A6000C4D828688007F7D52868616920F0F800A5
:100A700040EAC10028600DE0C6F80080FFF7FAFDEB
:100A8000074604E0FFF7F6FDC01B022823D82868BC
:100A90008007F7D4207800072CD57948A169D9B10F
:100AA000C0F80090FFF7E6FD074604E0FFF7E2FD1F
:100AB000C01B02280FD8686A8007F7D571484FF429
:100AC000FA510068B0FBF1F0009000BF0098411EA1
:100AD0000091FAD20EE080E0C0F80080FFF7CAFD76
:100AE000074604E0FFF7C6FDC01B022875D8686AF8
:100AF0008007F7D42078400760D5E8690027C00058
:100B000008D4E86940F08050E861E869012700F006
:100B1000805000905C480168C90513D40168834681
:100B200041F480710160FFF7A5FD824606E000BF39
:100B3000FFF7A0FDA0EB0A0064284ED8DBF8000008
:100B4000C005F5D5E06801280AD008B1052813D002
:100B5000286A20F001002862286A20F0040002E0E0
:100B6000286A40F001002862E06841F2883B98B1B1
:100B7000FFF780FD82460BE0286A40F004002862FF
:100B8000EEE700BFFFF776FDA0EB0A0159455AD802
:100B9000286A8007F6D50CE0FFF76CFD824605E079
:100BA000FFF768FDA0EB0A0159454CD8286A800779
:100BB000F6D41FB1E86920F08050E861E06988B39D
:100BC0006968C1F38101022944D00228C6F8608017
:100BD00004D0FFF74FFD044638E034E0FFF74AFD4C
:100BE000074604E0FFF746FDC01B02282BD8286803
:100BF0008001F7D4206AB0F5803F05D16868A1680C
:100C000020F4003008436860D4E9080108436968AB
:100C100021F4741108436860C6F86090FFF72AFD5C
:100C2000044606E025E000BFFFF724FD001B022874
:100C300009D828688001F7D51BE000BFFFF71AFD2F
:100C4000001B022802D90320BDE8F88F2868800124
:100C5000F4D40EE00128F7D06868226A00F48031ED
:100C6000914204D1616A00F47010884201D00120E1
:100C7000EAE70020E8E700000010024000004242DE
:100C8000800442420C0000200070004010B5401E5D
:100C9000B0F1807F01D3012010BD4FF0E0246061EE
:100CA0000F21601700F045FC0020A06107202061A3
:100CB000002010BD10B590F83C20012A22D001225E
:100CC00080F83C20CA688C6822F4407222434C6849
:100CD00022F4806222430C6822F4006222430C69F1
:100CE00022F4805222434C6922F400522243C96903
:100CF000002322F480420A4301684A6480F83C30B1
:100D0000002010BD022010BD70B590F83C20012AD3
:100D100026D0012480F83C40022280F83D20036860
:100D20005A689D6822F070060A6832435A600D4B7B
:100D300002689A4208D0B2F1804F05D00A4B9A421D
:100D400002D00A4B9A4204D1496825F08003194326
:100D5000916080F83D40002180F83C10084670BD4D
:100D6000022070BD002C014000040040000800403B
:100D700000B585B0002100910191029103910068B6
:100D80000B49884212D10B48816941F0040181610D
:100D90008069694600F0040004904FF48070009070
:100DA0000220019003900448FFF774FB05B000BDDA
:100DB000002C0140001002400008014070B50446BC
:100DC00090F83C000D4601280AD0012084F83C0030
:100DD00042B1042A18D0082A2AD00C2A4DD139E071
:100DE000022070BD206800F073FA2068816941F02C
:100DF000080181612068816921F004018161206816
:100E000081692A69114311E0206800F089FA20689D
:100E1000816941F4006181612068816921F4806108
:100E20008161206881692A6941EA0221816124E0A7
:100E3000206800F0A1FA2068C16941F00801C16191
:100E40002068C16921F00401C1612068C1692A6973
:100E5000114311E0206800F0BBFA2068C16941F439
:100E60000061C1612068C16921F48061C1612068AD
:100E7000C1692A6941EA0221C161002084F83C006D
:100E800070BD10B5040003D094F83D0010B107E028
:100E9000012010BD002084F83C00204600F01EF820
:100EA000022084F83D00211D206800F0CDF90120CA
:100EB00084F8460084F83E0084F83F0084F840003F
:100EC00084F8410084F8420084F8430084F8440028
:100ED00084F8450084F83D00002010BD08B5006886
:100EE0000649884208D10648816941F40061816160
:100EF000806900F40060009008BD0000002C0140F3
:100F00000010024010B50446022249B104290ED057
:100F1000082913D094F84100012816D0012010BDF3
:100F200094F83E000128F9D184F83E200FE094F8AF
:100F30003F000128F2D184F83F2008E094F84000F7
:100F40000128EBD184F8402001E084F841200122FF
:100F5000206800F0AFF90F492068884203D1426C45
:100F600042F4004242642068884208D0B0F1804FC9
:100F700005D00949884202D00849884204D18168D5
:100F800001F00701062903D0016841F00101016069
:100F9000002010BD002C014000040040000800406B
:100FA00070B5040004D094F83D00002510B106E0AF
:100FB000012070BD84F83C50204600F023F8242026
:100FC00084F83D002068C16821F40051C1602046CA
:100FD00000F020FA2068016921F490410161206845
:100FE000416921F02A0141612068C16841F4005142
:100FF000C1602564202084F83D0084F83E00002074
:1010000070BD000030B585B00024009401940294B6
:10101000039400681449884224D11448816941F43A
:1010200080418161816901F480410491816941F0CD
:101030000401816180690E4D00F0040004904FF4BA
:10104000007000900220019003200390694628461A
:10105000FFF720FA2815CDE90004694628460294D6
:10106000FFF718FA05B030BD00380140001002400B
:10107000000801402DE9F843044690F83D001F4662
:1010800016460D4620284CD1C5B1BEB194F83C009F
:10109000012846D0012084F83C004FF00008C4F835
:1010A0004080212084F83D00FFF7E4FAA6848146C1
:1010B000E684A068B0F5805F03D004E00120BDE8BD
:1010C000F883206928B12E465FF0000584F83C8043
:1010D0000EE00026FAE78021204600F0F7F9A0B9DB
:1010E000AEB116F8010B21684860E08C401EE08428
:1010F000E08C4B464FF0000200970028EBD14FF0F8
:101100004001204600F0E2F930B10320D7E735F87E
:10111000020BC0F30800E6E7202084F83D00002021
:10112000CDE70220CBE7FEE70C480B494FF4302215
:1011300001600321416000218160C0E903124FF486
:10114000801242610176417681760122C276017772
:101150004177FFF7B0B800000064004010000020A5
:1011600010B592B000240F941C2108A81094FEF72B
:10117000F2FF20216846FEF7EEFF1B481949016087
:1011800041F61F41C0E90114C721C0E903148021C1
:10119000C0E90541FFF775FE0F940FA9124810949E
:1011A000FFF7B2FD6020CDE908040A940B940C947B
:1011B0000D94002208A90C480E94FFF7FFFD00943F
:1011C0004FF40050CDE90440029401940394694621
:1011D00005480794FFF76EFD0348FFF7C9FD12B0FD
:1011E00010BD0000002C014038000020FEE77047D1
:1011F00070477047FFF744BA30B58FB02821684672
:10120000FEF7A9FF14210AA8FEF7A5FF0121080493
:10121000CDE900100024029402250491CDE9075085
:101220004FF4E01009906846FFF7A0FB0F20CDE9CE
:101230000A056802CDE90C4002210AA80E94FFF7C6
:10124000A9FA0FB030BD7047F0B50268164B174CC5
:10125000174D4FF08047984205D0B84203D0A042C6
:1012600001D0A84203D122F070064A683243984266
:1012700005D0B84203D0A04201D0A84203D122F445
:101280004074CA6822434C6922F080022243026003
:101290008A68C2620A688262984201D10969016360
:1012A00001214161F0BD0000002C0140000400401C
:1012B0000008004010B501F01F030121046A9940A5
:1012C0008C430462016A9A401143016210BD000020
:1012D00030B5026A22F001020262026A4368846940
:1012E00024F073050C682C4322F002058A682A4317
:1012F0000A4DA8420BD122F00805CA6823F44073B6
:101300002A434D6922F004021D438B692B4343603D
:10131000846149684163026230BD0000002C0140D5
:1013200030B5026A22F010020262026A43688469E0
:101330000D6824F4E64444EA05248D6822F0200276
:1013400042EA05120B4DA8420ED1CD6822F0800270
:1013500042EA05124D6923F4406343EA85038D692F
:1013600022F0400243EA8503436084614968816357
:10137000026230BD002C014030B5026A22F4807256
:101380000262036A4268C46923F4007324F073059F
:101390000C682C438D6843EA05230C4DA8420ED1FE
:1013A000CD6823F4006343EA05234D6922F44052DB
:1013B00042EA05128D6923F4806342EA0512426015
:1013C000C4614968C163036230BD0000002C014064
:1013D00030B5026A22F480520262046A4268C3692C
:1013E0000D6823F4E64343EA05238D6824F4005492
:1013F00044EA0534064DA84204D14D6922F48042E6
:1014000042EA85124260C36149680164046230BDEA
:10141000002C014070B5044600680169E26821F4BF
:101420004051114301612169A06808436169084383
:101430002168CA6841F20C639A430243CA6020687B
:101440004169A26921F44071114341611E4920683C
:10145000884202D1FFF744FA01E0FFF731FA00EBCE
:10146000C00101EB0012606864218000B2FBF0F360
:10147000B3FBF1F36FF018067343B2FBF0F5B2FB68
:10148000F0F605EB8305322303EB0515B5FBF1F50B
:10149000B6FBF1F605F0F00505EB0615B2FBF0F62C
:1014A000B2FBF0F0B0FBF1F06FF01802504306EB26
:1014B000800003EB0010B0FBF1F0216800F00F009A
:1014C0002844886070BD0000003801402DE9F041DB
:1014D000984617460E460446069D1DE0681C1BD024
:1014E0002DB1FFF7C7F8A0EB0800A84214D9206877
:1014F000C16821F4D071C1602068416921F0010107
:101500004161202084F83D0084F83E00002084F8EA
:101510003C000320BDE8F0812068006836EA000046
:1015200004D00020B842D9D00020F3E70120F9E729
:10153000FEE70907090E002804DB00F1E02080F82F
:101540000014704700F00F0000F1E02080F8141D37
:10155000704702E008C8121F08C1002AFAD170477C
:101560007047002001E001C1121F002AFBD1704723
:101570008AB0FFF78DF8FFF73FFE3B48816941F0E5
:1015800020018161816901F020010091816941F0B0
:1015900004018161806900F004000090FFF7C4FD40
:1015A000FFF7DEFD32483149002401604FF4E1319C
:1015B000C0E901140C21C460C0E904418461C46124
:1015C000FFF7EEFC0120CDE9064040210594CDE96E
:1015D00000144FF6E071CDE90214089004940E2037
:1015E0000990234869467038FEF7EEFD20487038B0
:1015F000FEF724FF641E68B114221EA16846FEF7A0
:1016000091FD6846FEF7B2FD82B22346694618484E
:10161000FFF730FD164802217038FEF7C3FD68B1B0
:101620001C2219A16846FEF77DFD6846FEF79EFD67
:1016300082B2234669460E48FFF71CFD0C48002184
:101640004838FFF75FFC68B1142216A16846FEF720
:1016500069FD6846FEF78AFD82B223466946044862
:10166000FFF708FDFEE700000010024000380140CF
:101670008000002043414E207374617274206572B3
:10168000726F720D0A00000043414E206E6F746944
:101690006669636174696F6E206572726F720D0A9C
:1016A0000000000050574D20737461727420657201
:1016B000726F720D0A0000000000000000000000C0
:1016C00001020304060708090000000001020304E8
:1016D000F01600080000002010000000521500085D
:1016E0000017000810000020D00400006215000858
:1016F0000100000010000000000000000024F400C1
:04000005080000ED02
:00000001FF
